{
  "contractName": "ActionAuctions",
  "abi": [
    {
      "constant": true,
      "inputs": [
        {
          "name": "",
          "type": "uint256"
        }
      ],
      "name": "auctions",
      "outputs": [
        {
          "name": "auctioneer",
          "type": "address"
        },
        {
          "name": "charity",
          "type": "address"
        },
        {
          "name": "title",
          "type": "string"
        },
        {
          "name": "status",
          "type": "uint8"
        },
        {
          "name": "numBids",
          "type": "uint256"
        },
        {
          "name": "topBidder",
          "type": "address"
        },
        {
          "name": "topBid",
          "type": "uint256"
        },
        {
          "name": "total",
          "type": "uint256"
        },
        {
          "name": "uncollectedWinnings",
          "type": "uint256"
        }
      ],
      "payable": false,
      "stateMutability": "view",
      "type": "function"
    },
    {
      "inputs": [],
      "payable": false,
      "stateMutability": "nonpayable",
      "type": "constructor"
    },
    {
      "payable": false,
      "stateMutability": "nonpayable",
      "type": "fallback"
    },
    {
      "anonymous": false,
      "inputs": [
        {
          "indexed": false,
          "name": "auctionId",
          "type": "uint256"
        },
        {
          "indexed": false,
          "name": "title",
          "type": "string"
        },
        {
          "indexed": false,
          "name": "auctioneer",
          "type": "address"
        }
      ],
      "name": "AuctionCreated",
      "type": "event"
    },
    {
      "anonymous": false,
      "inputs": [
        {
          "indexed": false,
          "name": "auctionId",
          "type": "uint256"
        },
        {
          "indexed": false,
          "name": "winner",
          "type": "address"
        },
        {
          "indexed": false,
          "name": "amtWon",
          "type": "uint256"
        },
        {
          "indexed": false,
          "name": "topBid",
          "type": "uint256"
        }
      ],
      "name": "AuctionEnded",
      "type": "event"
    },
    {
      "constant": false,
      "inputs": [
        {
          "name": "_title",
          "type": "string"
        },
        {
          "name": "_charity",
          "type": "string"
        }
      ],
      "name": "createAuction",
      "outputs": [
        {
          "name": "auctionId",
          "type": "uint256"
        }
      ],
      "payable": false,
      "stateMutability": "nonpayable",
      "type": "function"
    },
    {
      "constant": false,
      "inputs": [
        {
          "name": "_auctionId",
          "type": "uint256"
        }
      ],
      "name": "placeBid",
      "outputs": [
        {
          "name": "success",
          "type": "bool"
        }
      ],
      "payable": true,
      "stateMutability": "payable",
      "type": "function"
    },
    {
      "constant": false,
      "inputs": [
        {
          "name": "_auctionId",
          "type": "uint256"
        }
      ],
      "name": "endAuction",
      "outputs": [],
      "payable": false,
      "stateMutability": "nonpayable",
      "type": "function"
    },
    {
      "constant": false,
      "inputs": [
        {
          "name": "_auctionId",
          "type": "uint256"
        }
      ],
      "name": "retrieveWinnings",
      "outputs": [],
      "payable": true,
      "stateMutability": "payable",
      "type": "function"
    }
  ],
  "bytecode": "0x608060405234801561001057600080fd5b5033600260006101000a81548173ffffffffffffffffffffffffffffffffffffffff021916908373ffffffffffffffffffffffffffffffffffffffff16021790555073d70aeeb15f5e934aca7c626ea86bfc0ca5717c2a600160405180807f616d6600000000000000000000000000000000000000000000000000000000008152506003019050908152602001604051809103902060006101000a81548173ffffffffffffffffffffffffffffffffffffffff021916908373ffffffffffffffffffffffffffffffffffffffff160217905550611d01806100f26000396000f30060806040526004361061006c576000357c0100000000000000000000000000000000000000000000000000000000900463ffffffff168062a7d41c1461007e578063571a26a01461009e5780639979ef451461020e578063b5fa4ea814610246578063b9a2de3a14610309575b34801561007857600080fd5b50600080fd5b61009c60048036038101908080359060200190929190505050610336565b005b3480156100aa57600080fd5b506100c9600480360381019080803590602001909291905050506106a5565b604051808a73ffffffffffffffffffffffffffffffffffffffff1673ffffffffffffffffffffffffffffffffffffffff1681526020018973ffffffffffffffffffffffffffffffffffffffff1673ffffffffffffffffffffffffffffffffffffffff1681526020018060200188600181111561014157fe5b60ff1681526020018781526020018673ffffffffffffffffffffffffffffffffffffffff1673ffffffffffffffffffffffffffffffffffffffff168152602001858152602001848152602001838152602001828103825289818151815260200191508051906020019080838360005b838110156101cb5780820151818401526020810190506101b0565b50505050905090810190601f1680156101f85780820380516001836020036101000a031916815260200191505b509a505050505050505050505060405180910390f35b61022c60048036038101908080359060200190929190505050610807565b604051808215151515815260200191505060405180910390f35b34801561025257600080fd5b506102f3600480360381019080803590602001908201803590602001908080601f0160208091040260200160405190810160405280939291908181526020018383808284378201915050505050509192919290803590602001908201803590602001908080601f0160208091040260200160405190810160405280939291908181526020018383808284378201915050505050509192919290505050610d49565b6040518082815260200191505060405180910390f35b34801561031557600080fd5b50610334600480360381019080803590602001909291905050506112ec565b005b61033e611ac4565b6000808381548110151561034e57fe5b906000526020600020906009020161012060405190810160405290816000820160009054906101000a900473ffffffffffffffffffffffffffffffffffffffff1673ffffffffffffffffffffffffffffffffffffffff1673ffffffffffffffffffffffffffffffffffffffff1681526020016001820160009054906101000a900473ffffffffffffffffffffffffffffffffffffffff1673ffffffffffffffffffffffffffffffffffffffff1673ffffffffffffffffffffffffffffffffffffffff168152602001600282018054600181600116156101000203166002900480601f0160208091040260200160405190810160405280929190818152602001828054600181600116156101000203166002900480156104ae5780601f10610483576101008083540402835291602001916104ae565b820191906000526020600020905b81548152906001019060200180831161049157829003601f168201915b505050505081526020016003820160009054906101000a900460ff1660018111156104d557fe5b60018111156104e057fe5b8152602001600482015481526020016005820160009054906101000a900473ffffffffffffffffffffffffffffffffffffffff1673ffffffffffffffffffffffffffffffffffffffff1673ffffffffffffffffffffffffffffffffffffffff168152602001600682015481526020016007820154815260200160088201548152505091506000600181111561057157fe5b8260600151600181111561058157fe5b1415156105f6576040517f08c379a00000000000000000000000000000000000000000000000000000000081526004018080602001828103825260128152602001807f41756374696f6e207374696c6c206c697665000000000000000000000000000081525060200191505060405180910390fd5b8161010001519050600082610100018181525050816020015173ffffffffffffffffffffffffffffffffffffffff166108fc829081150290604051600060405180830381858888f19350505050158015610654573d6000803e3d6000fd5b508160a0015173ffffffffffffffffffffffffffffffffffffffff166108fc829081150290604051600060405180830381858888f1935050505015801561069f573d6000803e3d6000fd5b50505050565b6000818154811015156106b457fe5b90600052602060002090600902016000915090508060000160009054906101000a900473ffffffffffffffffffffffffffffffffffffffff16908060010160009054906101000a900473ffffffffffffffffffffffffffffffffffffffff1690806002018054600181600116156101000203166002900480601f0160208091040260200160405190810160405280929190818152602001828054600181600116156101000203166002900480156107ac5780601f10610781576101008083540402835291602001916107ac565b820191906000526020600020905b81548152906001019060200180831161078f57829003601f168201915b5050505050908060030160009054906101000a900460ff16908060040154908060050160009054906101000a900473ffffffffffffffffffffffffffffffffffffffff16908060060154908060070154908060080154905089565b6000610811611ac4565b60008060008561081f611ac4565b60008281548110151561082e57fe5b906000526020600020906009020161012060405190810160405290816000820160009054906101000a900473ffffffffffffffffffffffffffffffffffffffff1673ffffffffffffffffffffffffffffffffffffffff1673ffffffffffffffffffffffffffffffffffffffff1681526020016001820160009054906101000a900473ffffffffffffffffffffffffffffffffffffffff1673ffffffffffffffffffffffffffffffffffffffff1673ffffffffffffffffffffffffffffffffffffffff168152602001600282018054600181600116156101000203166002900480601f01602080910402602001604051908101604052809291908181526020018280546001816001161561010002031660029004801561098e5780601f106109635761010080835404028352916020019161098e565b820191906000526020600020905b81548152906001019060200180831161097157829003601f168201915b505050505081526020016003820160009054906101000a900460ff1660018111156109b557fe5b60018111156109c057fe5b8152602001600482015481526020016005820160009054906101000a900473ffffffffffffffffffffffffffffffffffffffff1673ffffffffffffffffffffffffffffffffffffffff1673ffffffffffffffffffffffffffffffffffffffff1681526020016006820154815260200160078201548152602001600882015481525050905060006001811115610a5157fe5b81606001516001811115610a6157fe5b14151515610a6b57fe5b600088815481101515610a7a57fe5b906000526020600020906009020161012060405190810160405290816000820160009054906101000a900473ffffffffffffffffffffffffffffffffffffffff1673ffffffffffffffffffffffffffffffffffffffff1673ffffffffffffffffffffffffffffffffffffffff1681526020016001820160009054906101000a900473ffffffffffffffffffffffffffffffffffffffff1673ffffffffffffffffffffffffffffffffffffffff1673ffffffffffffffffffffffffffffffffffffffff168152602001600282018054600181600116156101000203166002900480601f016020809104026020016040519081016040528092919081815260200182805460018160011615610100020316600290048015610bda5780601f10610baf57610100808354040283529160200191610bda565b820191906000526020600020905b815481529060010190602001808311610bbd57829003601f168201915b505050505081526020016003820160009054906101000a900460ff166001811115610c0157fe5b6001811115610c0c57fe5b8152602001600482015481526020016005820160009054906101000a900473ffffffffffffffffffffffffffffffffffffffff1673ffffffffffffffffffffffffffffffffffffffff1673ffffffffffffffffffffffffffffffffffffffff16815260200160068201548152602001600782015481526020016008820154815250509550339450349350610ca48660e0015185611a8b565b8660e0018181525050610cb8846002611aa9565b9250610cc986610100015184611a8b565b866101000181815250508560c00151841115610d2257838660c0018181525050848660a0019073ffffffffffffffffffffffffffffffffffffffff16908173ffffffffffffffffffffffffffffffffffffffff16815250505b610d3186608001516001611a8b565b86608001818152505060019650505050505050919050565b6000610d53611ac4565b60006001846040518082805190602001908083835b602083101515610d8d5780518252602082019150602081019050602083039250610d68565b6001836020036101000a038019825116818451168082178552505050505050905001915050908152602001604051809103902060009054906101000a900473ffffffffffffffffffffffffffffffffffffffff1673ffffffffffffffffffffffffffffffffffffffff1614151515610e6d576040517f08c379a00000000000000000000000000000000000000000000000000000000081526004018080602001828103825260198152602001807f43686172697479206e616d65206973206e6f742076616c69640000000000000081525060200191505060405180910390fd5b60008054809190600101610e819190611b5e565b9150600082815481101515610e9257fe5b906000526020600020906009020161012060405190810160405290816000820160009054906101000a900473ffffffffffffffffffffffffffffffffffffffff1673ffffffffffffffffffffffffffffffffffffffff1673ffffffffffffffffffffffffffffffffffffffff1681526020016001820160009054906101000a900473ffffffffffffffffffffffffffffffffffffffff1673ffffffffffffffffffffffffffffffffffffffff1673ffffffffffffffffffffffffffffffffffffffff168152602001600282018054600181600116156101000203166002900480601f016020809104026020016040519081016040528092919081815260200182805460018160011615610100020316600290048015610ff25780601f10610fc757610100808354040283529160200191610ff2565b820191906000526020600020905b815481529060010190602001808311610fd557829003601f168201915b505050505081526020016003820160009054906101000a900460ff16600181111561101957fe5b600181111561102457fe5b8152602001600482015481526020016005820160009054906101000a900473ffffffffffffffffffffffffffffffffffffffff1673ffffffffffffffffffffffffffffffffffffffff1673ffffffffffffffffffffffffffffffffffffffff1681526020016006820154815260200160078201548152602001600882015481525050905033816000019073ffffffffffffffffffffffffffffffffffffffff16908173ffffffffffffffffffffffffffffffffffffffff16815250506001836040518082805190602001908083835b60208310151561111857805182526020820191506020810190506020830392506110f3565b6001836020036101000a038019825116818451168082178552505050505050905001915050908152602001604051809103902060009054906101000a900473ffffffffffffffffffffffffffffffffffffffff16816020019073ffffffffffffffffffffffffffffffffffffffff16908173ffffffffffffffffffffffffffffffffffffffff16815250508381604001819052506000816060019060018111156111be57fe5b908160018111156111cb57fe5b8152505060008160800181815250508060a001515060008160c001818152505060008160e00181815250506000816101000181815250507ff6893840072936dc77874abc2cce5477f1bc76557a9f29895cdcaf2641724c4a828260400151836000015160405180848152602001806020018373ffffffffffffffffffffffffffffffffffffffff1673ffffffffffffffffffffffffffffffffffffffff168152602001828103825284818151815260200191508051906020019080838360005b838110156112a657808201518184015260208101905061128b565b50505050905090810190601f1680156112d35780820380516001836020036101000a031916815260200191505b5094505050505060405180910390a18191505092915050565b6112f4611ac4565b816112fd611ac4565b60008281548110151561130c57fe5b906000526020600020906009020161012060405190810160405290816000820160009054906101000a900473ffffffffffffffffffffffffffffffffffffffff1673ffffffffffffffffffffffffffffffffffffffff1673ffffffffffffffffffffffffffffffffffffffff1681526020016001820160009054906101000a900473ffffffffffffffffffffffffffffffffffffffff1673ffffffffffffffffffffffffffffffffffffffff1673ffffffffffffffffffffffffffffffffffffffff168152602001600282018054600181600116156101000203166002900480601f01602080910402602001604051908101604052809291908181526020018280546001816001161561010002031660029004801561146c5780601f106114415761010080835404028352916020019161146c565b820191906000526020600020905b81548152906001019060200180831161144f57829003601f168201915b505050505081526020016003820160009054906101000a900460ff16600181111561149357fe5b600181111561149e57fe5b8152602001600482015481526020016005820160009054906101000a900473ffffffffffffffffffffffffffffffffffffffff1673ffffffffffffffffffffffffffffffffffffffff1673ffffffffffffffffffffffffffffffffffffffff168152602001600682015481526020016007820154815260200160088201548152505090506000600181111561152f57fe5b8160600151600181111561153f57fe5b1415151561154957fe5b83611552611ac4565b60008281548110151561156157fe5b906000526020600020906009020161012060405190810160405290816000820160009054906101000a900473ffffffffffffffffffffffffffffffffffffffff1673ffffffffffffffffffffffffffffffffffffffff1673ffffffffffffffffffffffffffffffffffffffff1681526020016001820160009054906101000a900473ffffffffffffffffffffffffffffffffffffffff1673ffffffffffffffffffffffffffffffffffffffff1673ffffffffffffffffffffffffffffffffffffffff168152602001600282018054600181600116156101000203166002900480601f0160208091040260200160405190810160405280929190818152602001828054600181600116156101000203166002900480156116c15780601f10611696576101008083540402835291602001916116c1565b820191906000526020600020905b8154815290600101906020018083116116a457829003601f168201915b505050505081526020016003820160009054906101000a900460ff1660018111156116e857fe5b60018111156116f357fe5b8152602001600482015481526020016005820160009054906101000a900473ffffffffffffffffffffffffffffffffffffffff1673ffffffffffffffffffffffffffffffffffffffff1673ffffffffffffffffffffffffffffffffffffffff168152602001600682015481526020016007820154815260200160088201548152505090503373ffffffffffffffffffffffffffffffffffffffff16816000015173ffffffffffffffffffffffffffffffffffffffff16141515156117b357fe5b6000868154811015156117c257fe5b906000526020600020906009020161012060405190810160405290816000820160009054906101000a900473ffffffffffffffffffffffffffffffffffffffff1673ffffffffffffffffffffffffffffffffffffffff1673ffffffffffffffffffffffffffffffffffffffff1681526020016001820160009054906101000a900473ffffffffffffffffffffffffffffffffffffffff1673ffffffffffffffffffffffffffffffffffffffff1673ffffffffffffffffffffffffffffffffffffffff168152602001600282018054600181600116156101000203166002900480601f0160208091040260200160405190810160405280929190818152602001828054600181600116156101000203166002900480156119225780601f106118f757610100808354040283529160200191611922565b820191906000526020600020905b81548152906001019060200180831161190557829003601f168201915b505050505081526020016003820160009054906101000a900460ff16600181111561194957fe5b600181111561195457fe5b8152602001600482015481526020016005820160009054906101000a900473ffffffffffffffffffffffffffffffffffffffff1673ffffffffffffffffffffffffffffffffffffffff1673ffffffffffffffffffffffffffffffffffffffff168152602001600682015481526020016007820154815260200160088201548152505094506001856060019060018111156119ea57fe5b908160018111156119f757fe5b815250507fe9ba83469fc8ee4260dd274fd43b5a54f2df813ad21c4637d53084d1f3866b37868660a001518761010001518860c00151604051808581526020018473ffffffffffffffffffffffffffffffffffffffff1673ffffffffffffffffffffffffffffffffffffffff16815260200183815260200182815260200194505050505060405180910390a1505050505050565b6000808284019050838110151515611a9f57fe5b8091505092915050565b6000808284811515611ab757fe5b0490508091505092915050565b61012060405190810160405280600073ffffffffffffffffffffffffffffffffffffffff168152602001600073ffffffffffffffffffffffffffffffffffffffff1681526020016060815260200160006001811115611b1f57fe5b815260200160008152602001600073ffffffffffffffffffffffffffffffffffffffff1681526020016000815260200160008152602001600081525090565b815481835581811115611b8b57600902816009028360005260206000209182019101611b8a9190611b90565b5b505050565b611c6591905b80821115611c6157600080820160006101000a81549073ffffffffffffffffffffffffffffffffffffffff02191690556001820160006101000a81549073ffffffffffffffffffffffffffffffffffffffff0219169055600282016000611bfd9190611c68565b6003820160006101000a81549060ff021916905560048201600090556005820160006101000a81549073ffffffffffffffffffffffffffffffffffffffff021916905560068201600090556007820160009055600882016000905550600901611b96565b5090565b90565b50805460018160011615610100020316600290046000825580601f10611c8e5750611cad565b601f016020900490600052602060002090810190611cac9190611cb0565b5b50565b611cd291905b80821115611cce576000816000905550600101611cb6565b5090565b905600a165627a7a72305820580eab65e52f4d6900e5186553c93617548a80de9f3cddce293f043cd2dc87b10029",
  "source": "//Action auction contract organizing and running a single auction\npragma solidity ^0.4.24;\n\n//import open safemath\nimport \"./safemath.sol\";\n\ncontract ActionAuctions{\n\n  enum AuctionStatus {Active, Inactive}\n\n  struct Auction {\n    address auctioneer;\n    address charity;\n\n    string title;\n    AuctionStatus status;\n    uint numBids;\n\n    address topBidder;\n    uint topBid;\n    uint total;\n\n    uint uncollectedWinnings;\n  }\n\n  Auction[] public auctions;          // All auctions\n\n  //name of charity to eth address\n  mapping(string => address) charities;\n\n  address auctioneer;\n\n  event AuctionCreated(uint auctionId, string title, address auctioneer);\n  event AuctionEnded(uint auctionId, address winner, uint amtWon, uint topBid);\n\n  //Checks that sender is the auctioneer\n  modifier onlyAuctioneer(uint AuctionId){\n    Auction memory a = auctions[AuctionId];\n    assert(a.auctioneer != msg.sender);\n        _;\n  }\n\n  //Checks that current auction is live\n  modifier onlyLive(uint AuctionId){\n    Auction memory a = auctions[AuctionId];\n    assert(a.status != AuctionStatus.Active);\n    _;\n  }\n\n  //creates an action auction\n  function ActionAuctions() public {\n    auctioneer = msg.sender;\n    //add the charity to mapping of approved charities\n    charities[\"amf\"] =  0xD70AEeB15F5E934aCA7c626eA86bFc0ca5717C2A;\n  }\n\n  //adds an auction to the list of auctions, and publishes it\n  function createAuction(string _title, string _charity) public returns (uint auctionId) {\n    // Make sure that the charity is correct\n    require(charities[_charity] != 0, \"Charity name is not valid\");\n\n    auctionId = auctions.length++;\n    Auction memory a = auctions[auctionId];\n\n    a.auctioneer = msg.sender;\n    a.charity = charities[_charity];\n    a.title = _title;\n    a.status = AuctionStatus.Active;\n    a.numBids = 0;\n    a.topBidder;\n    a.topBid = 0;\n    a.total = 0;\n    a.uncollectedWinnings = 0;\n\n    emit AuctionCreated(auctionId, a.title, a.auctioneer);\n\n    return auctionId;\n  }\n\n  //allows users to place bid\n  function placeBid(uint _auctionId) payable onlyLive(_auctionId) public returns (bool success) {\n    Auction memory a = auctions[_auctionId];\n    address newBid = msg.sender;\n    uint amount = msg.value;\n\n    //update total, uncollected winnings\n    a.total = SafeMath.add(a.total, amount);\n    uint winnings = SafeMath.div(amount, 2);\n    a.uncollectedWinnings = SafeMath.add(a.uncollectedWinnings, winnings);\n\n    //update top bid and top id\n    if(amount > a.topBid){\n      a.topBid = amount;\n      a.topBidder = newBid;\n    }\n\n    //count bids\n    a.numBids = SafeMath.add(a.numBids, 1);\n\n    return true;\n  }\n\n  // ends the auction\n  function endAuction(uint _auctionId) public onlyLive(_auctionId) onlyAuctioneer(_auctionId) {\n    Auction memory a = auctions[_auctionId];\n    a.status = AuctionStatus.Inactive;\n    emit AuctionEnded(_auctionId, a.topBidder, a.uncollectedWinnings, a.topBid);\n  }\n\n  //sends payment to charity when winner collects\n  function retrieveWinnings(uint _auctionId) public payable{\n    Auction memory a = auctions[_auctionId];\n    //require auction is over\n    require(a.status == AuctionStatus.Active, \"Auction still live\");\n\n    //set uncollectedWinnings to 0 to prevent receiving winnings mult. times\n    uint payout = a.uncollectedWinnings;\n    a.uncollectedWinnings = 0;\n    //send money to _charity\n    a.charity.transfer(payout);\n    //send money to _winner\n    a.topBidder.transfer(payout);\n  }\n\n  //Doesn't allow ether randomly being sent to you\n  function() public {\n    revert();\n  }\n}\n",
  "sourcePath": "/Users/freyaryd/Projects/CharityLabs/contracts/ActionAuctions.sol",
  "compiler": {
    "name": "solc",
    "version": "0.4.24+commit.e67f0147.Emscripten.clang"
  },
  "schemaVersion": "2.0.1",
  "updatedAt": "2018-07-29T20:27:39.925Z"
}