{
  "contractName": "ActionAuctions",
  "abi": [
    {
      "constant": true,
      "inputs": [
        {
          "name": "",
          "type": "uint256"
        }
      ],
      "name": "auctions",
      "outputs": [
        {
          "name": "auctioneer",
          "type": "address"
        },
        {
          "name": "charity",
          "type": "address"
        },
        {
          "name": "title",
          "type": "string"
        },
        {
          "name": "status",
          "type": "uint8"
        },
        {
          "name": "numBids",
          "type": "uint256"
        },
        {
          "name": "topBidder",
          "type": "address"
        },
        {
          "name": "topBid",
          "type": "uint256"
        },
        {
          "name": "total",
          "type": "uint256"
        }
      ],
      "payable": false,
      "stateMutability": "view",
      "type": "function"
    },
    {
      "constant": false,
      "inputs": [],
      "name": "renounceOwnership",
      "outputs": [],
      "payable": false,
      "stateMutability": "nonpayable",
      "type": "function"
    },
    {
      "constant": true,
      "inputs": [],
      "name": "owner",
      "outputs": [
        {
          "name": "",
          "type": "address"
        }
      ],
      "payable": false,
      "stateMutability": "view",
      "type": "function"
    },
    {
      "constant": false,
      "inputs": [
        {
          "name": "_newOwner",
          "type": "address"
        }
      ],
      "name": "transferOwnership",
      "outputs": [],
      "payable": false,
      "stateMutability": "nonpayable",
      "type": "function"
    },
    {
      "inputs": [],
      "payable": false,
      "stateMutability": "nonpayable",
      "type": "constructor"
    },
    {
      "payable": false,
      "stateMutability": "nonpayable",
      "type": "fallback"
    },
    {
      "anonymous": false,
      "inputs": [
        {
          "indexed": false,
          "name": "auctionId",
          "type": "uint256"
        },
        {
          "indexed": false,
          "name": "title",
          "type": "string"
        },
        {
          "indexed": false,
          "name": "auctioneer",
          "type": "address"
        }
      ],
      "name": "AuctionCreated",
      "type": "event"
    },
    {
      "anonymous": false,
      "inputs": [
        {
          "indexed": false,
          "name": "auctionId",
          "type": "uint256"
        },
        {
          "indexed": false,
          "name": "winner",
          "type": "address"
        },
        {
          "indexed": false,
          "name": "amtWon",
          "type": "uint256"
        },
        {
          "indexed": false,
          "name": "topBid",
          "type": "uint256"
        }
      ],
      "name": "AuctionEnded",
      "type": "event"
    },
    {
      "anonymous": false,
      "inputs": [
        {
          "indexed": false,
          "name": "numBids",
          "type": "uint256"
        }
      ],
      "name": "BidPlaced",
      "type": "event"
    },
    {
      "anonymous": false,
      "inputs": [
        {
          "indexed": true,
          "name": "previousOwner",
          "type": "address"
        }
      ],
      "name": "OwnershipRenounced",
      "type": "event"
    },
    {
      "anonymous": false,
      "inputs": [
        {
          "indexed": true,
          "name": "previousOwner",
          "type": "address"
        },
        {
          "indexed": true,
          "name": "newOwner",
          "type": "address"
        }
      ],
      "name": "OwnershipTransferred",
      "type": "event"
    },
    {
      "constant": false,
      "inputs": [
        {
          "name": "_title",
          "type": "string"
        },
        {
          "name": "_charity",
          "type": "string"
        }
      ],
      "name": "createAuction",
      "outputs": [
        {
          "name": "",
          "type": "uint256"
        }
      ],
      "payable": false,
      "stateMutability": "nonpayable",
      "type": "function"
    },
    {
      "constant": false,
      "inputs": [
        {
          "name": "_auctionId",
          "type": "uint256"
        }
      ],
      "name": "placeBid",
      "outputs": [],
      "payable": true,
      "stateMutability": "payable",
      "type": "function"
    },
    {
      "constant": false,
      "inputs": [
        {
          "name": "_auctionId",
          "type": "uint256"
        }
      ],
      "name": "endAuction",
      "outputs": [],
      "payable": false,
      "stateMutability": "nonpayable",
      "type": "function"
    },
    {
      "constant": false,
      "inputs": [
        {
          "name": "_charity",
          "type": "string"
        }
      ],
      "name": "removeCharity",
      "outputs": [],
      "payable": false,
      "stateMutability": "nonpayable",
      "type": "function"
    },
    {
      "constant": false,
      "inputs": [
        {
          "name": "_charity",
          "type": "string"
        },
        {
          "name": "_address",
          "type": "address"
        }
      ],
      "name": "addCharity",
      "outputs": [],
      "payable": false,
      "stateMutability": "nonpayable",
      "type": "function"
    },
    {
      "constant": true,
      "inputs": [
        {
          "name": "_charity",
          "type": "string"
        }
      ],
      "name": "getCharity",
      "outputs": [
        {
          "name": "",
          "type": "address"
        }
      ],
      "payable": false,
      "stateMutability": "view",
      "type": "function"
    }
  ],
  "bytecode": "0x608060405234801561001057600080fd5b50336000806101000a81548173ffffffffffffffffffffffffffffffffffffffff021916908373ffffffffffffffffffffffffffffffffffffffff16021790555033600360006101000a81548173ffffffffffffffffffffffffffffffffffffffff021916908373ffffffffffffffffffffffffffffffffffffffff16021790555073d70aeeb15f5e934aca7c626ea86bfc0ca5717c2a600260405180807f616d6600000000000000000000000000000000000000000000000000000000008152506003019050908152602001604051809103902060006101000a81548173ffffffffffffffffffffffffffffffffffffffff021916908373ffffffffffffffffffffffffffffffffffffffff160217905550611eb7806101326000396000f3006080604052600436106100a4576000357c0100000000000000000000000000000000000000000000000000000000900463ffffffff16806314d743b6146100b65780631ab91517146100f1578063571a26a01461014c578063715018a6146102b55780638ad95d0e146102cc5780638da5cb5b146103475780639979ef451461039e578063b5fa4ea8146103be578063b9a2de3a14610425578063f2fde38b14610452575b3480156100b057600080fd5b50600080fd5b3480156100c257600080fd5b506100ef600480360381019080803590602001908201803590602001919091929391929390505050610495565b005b3480156100fd57600080fd5b5061014a600480360381019080803590602001908201803590602001919091929391929390803573ffffffffffffffffffffffffffffffffffffffff169060200190929190505050610559565b005b34801561015857600080fd5b506101776004803603810190808035906020019092919050505061061d565b604051808973ffffffffffffffffffffffffffffffffffffffff1673ffffffffffffffffffffffffffffffffffffffff1681526020018873ffffffffffffffffffffffffffffffffffffffff1673ffffffffffffffffffffffffffffffffffffffff168152602001806020018760018111156101ef57fe5b60ff1681526020018681526020018573ffffffffffffffffffffffffffffffffffffffff1673ffffffffffffffffffffffffffffffffffffffff168152602001848152602001838152602001828103825288818151815260200191508051906020019080838360005b83811015610273578082015181840152602081019050610258565b50505050905090810190601f1680156102a05780820380516001836020036101000a031916815260200191505b50995050505050505050505060405180910390f35b3480156102c157600080fd5b506102ca610779565b005b3480156102d857600080fd5b5061030560048036038101908080359060200190820180359060200191909192939192939050505061087b565b604051808273ffffffffffffffffffffffffffffffffffffffff1673ffffffffffffffffffffffffffffffffffffffff16815260200191505060405180910390f35b34801561035357600080fd5b5061035c6108cb565b604051808273ffffffffffffffffffffffffffffffffffffffff1673ffffffffffffffffffffffffffffffffffffffff16815260200191505060405180910390f35b6103bc600480360381019080803590602001909291905050506108f0565b005b3480156103ca57600080fd5b5061040f600480360381019080803590602001908201803590602001919091929391929390803590602001908201803590602001919091929391929390505050610eb8565b6040518082815260200191505060405180910390f35b34801561043157600080fd5b5061045060048036038101908080359060200190929190505050611340565b005b34801561045e57600080fd5b50610493600480360381019080803573ffffffffffffffffffffffffffffffffffffffff169060200190929190505050611bb9565b005b6000809054906101000a900473ffffffffffffffffffffffffffffffffffffffff1673ffffffffffffffffffffffffffffffffffffffff163373ffffffffffffffffffffffffffffffffffffffff161415156104f057600080fd5b60006002838360405180838380828437820191505092505050908152602001604051809103902060006101000a81548173ffffffffffffffffffffffffffffffffffffffff021916908373ffffffffffffffffffffffffffffffffffffffff1602179055505050565b6000809054906101000a900473ffffffffffffffffffffffffffffffffffffffff1673ffffffffffffffffffffffffffffffffffffffff163373ffffffffffffffffffffffffffffffffffffffff161415156105b457600080fd5b806002848460405180838380828437820191505092505050908152602001604051809103902060006101000a81548173ffffffffffffffffffffffffffffffffffffffff021916908373ffffffffffffffffffffffffffffffffffffffff160217905550505050565b60018181548110151561062c57fe5b90600052602060002090600802016000915090508060000160009054906101000a900473ffffffffffffffffffffffffffffffffffffffff16908060010160009054906101000a900473ffffffffffffffffffffffffffffffffffffffff1690806002018054600181600116156101000203166002900480601f0160208091040260200160405190810160405280929190818152602001828054600181600116156101000203166002900480156107245780601f106106f957610100808354040283529160200191610724565b820191906000526020600020905b81548152906001019060200180831161070757829003601f168201915b5050505050908060030160009054906101000a900460ff16908060040154908060050160009054906101000a900473ffffffffffffffffffffffffffffffffffffffff16908060060154908060070154905088565b6000809054906101000a900473ffffffffffffffffffffffffffffffffffffffff1673ffffffffffffffffffffffffffffffffffffffff163373ffffffffffffffffffffffffffffffffffffffff161415156107d457600080fd5b6000809054906101000a900473ffffffffffffffffffffffffffffffffffffffff1673ffffffffffffffffffffffffffffffffffffffff167ff8df31144d9c2f0f6b59d69b8b98abd5459d07f2742c4df920b25aae33c6482060405160405180910390a260008060006101000a81548173ffffffffffffffffffffffffffffffffffffffff021916908373ffffffffffffffffffffffffffffffffffffffff160217905550565b60006002838360405180838380828437820191505092505050908152602001604051809103902060009054906101000a900473ffffffffffffffffffffffffffffffffffffffff16905092915050565b6000809054906101000a900473ffffffffffffffffffffffffffffffffffffffff1681565b6108f8611d53565b60008083610904611d53565b60018281548110151561091357fe5b906000526020600020906008020161010060405190810160405290816000820160009054906101000a900473ffffffffffffffffffffffffffffffffffffffff1673ffffffffffffffffffffffffffffffffffffffff1673ffffffffffffffffffffffffffffffffffffffff1681526020016001820160009054906101000a900473ffffffffffffffffffffffffffffffffffffffff1673ffffffffffffffffffffffffffffffffffffffff1673ffffffffffffffffffffffffffffffffffffffff168152602001600282018054600181600116156101000203166002900480601f016020809104026020016040519081016040528092919081815260200182805460018160011615610100020316600290048015610a735780601f10610a4857610100808354040283529160200191610a73565b820191906000526020600020905b815481529060010190602001808311610a5657829003601f168201915b505050505081526020016003820160009054906101000a900460ff166001811115610a9a57fe5b6001811115610aa557fe5b8152602001600482015481526020016005820160009054906101000a900473ffffffffffffffffffffffffffffffffffffffff1673ffffffffffffffffffffffffffffffffffffffff1673ffffffffffffffffffffffffffffffffffffffff16815260200160068201548152602001600782015481525050905060006001811115610b2c57fe5b81606001516001811115610b3c57fe5b141515610b4857600080fd5b60018054905086101515610bc4576040517f08c379a00000000000000000000000000000000000000000000000000000000081526004018080602001828103825260128152602001807f496e76616c69642041756374696f6e204944000000000000000000000000000081525060200191505060405180910390fd5b600186815481101515610bd357fe5b906000526020600020906008020161010060405190810160405290816000820160009054906101000a900473ffffffffffffffffffffffffffffffffffffffff1673ffffffffffffffffffffffffffffffffffffffff1673ffffffffffffffffffffffffffffffffffffffff1681526020016001820160009054906101000a900473ffffffffffffffffffffffffffffffffffffffff1673ffffffffffffffffffffffffffffffffffffffff1673ffffffffffffffffffffffffffffffffffffffff168152602001600282018054600181600116156101000203166002900480601f016020809104026020016040519081016040528092919081815260200182805460018160011615610100020316600290048015610d335780601f10610d0857610100808354040283529160200191610d33565b820191906000526020600020905b815481529060010190602001808311610d1657829003601f168201915b505050505081526020016003820160009054906101000a900460ff166001811115610d5a57fe5b6001811115610d6557fe5b8152602001600482015481526020016005820160009054906101000a900473ffffffffffffffffffffffffffffffffffffffff1673ffffffffffffffffffffffffffffffffffffffff1673ffffffffffffffffffffffffffffffffffffffff168152602001600682015481526020016007820154815250509450339350349250610dfc838660e00151611c2090919063ffffffff16565b8560e00181815250508460c00151831115610e5457828560c0018181525050838560a0019073ffffffffffffffffffffffffffffffffffffffff16908173ffffffffffffffffffffffffffffffffffffffff16815250505b610e6c60018660800151611c2090919063ffffffff16565b8560800181815250507f976fcfed21e952865633c579434a4decc05f1095d9ebf5e1692075199d8e28d485608001516040518082815260200191505060405180910390a1505050505050565b600080610ec3611d53565b60006002868660405180838380828437820191505092505050908152602001604051809103902060009054906101000a900473ffffffffffffffffffffffffffffffffffffffff1673ffffffffffffffffffffffffffffffffffffffff1614151515610f97576040517f08c379a00000000000000000000000000000000000000000000000000000000081526004018080602001828103825260198152602001807f43686172697479206e616d65206973206e6f742076616c69640000000000000081525060200191505060405180910390fd5b6001805490509150610100604051908101604052803373ffffffffffffffffffffffffffffffffffffffff1681526020016002878760405180838380828437820191505092505050908152602001604051809103902060009054906101000a900473ffffffffffffffffffffffffffffffffffffffff1673ffffffffffffffffffffffffffffffffffffffff16815260200188888080601f01602080910402602001604051908101604052809392919081815260200183838082843782019150505050505081526020016000600181111561106e57fe5b8152602001600081526020016002878760405180838380828437820191505092505050908152602001604051809103902060009054906101000a900473ffffffffffffffffffffffffffffffffffffffff1673ffffffffffffffffffffffffffffffffffffffff16815260200160008152602001600081525090506001819080600181540180825580915050906001820390600052602060002090600802016000909192909190915060008201518160000160006101000a81548173ffffffffffffffffffffffffffffffffffffffff021916908373ffffffffffffffffffffffffffffffffffffffff16021790555060208201518160010160006101000a81548173ffffffffffffffffffffffffffffffffffffffff021916908373ffffffffffffffffffffffffffffffffffffffff16021790555060408201518160020190805190602001906111c1929190611de6565b5060608201518160030160006101000a81548160ff021916908360018111156111e657fe5b02179055506080820151816004015560a08201518160050160006101000a81548173ffffffffffffffffffffffffffffffffffffffff021916908373ffffffffffffffffffffffffffffffffffffffff16021790555060c0820151816006015560e082015181600701555050507ff6893840072936dc77874abc2cce5477f1bc76557a9f29895cdcaf2641724c4a828260400151836000015160405180848152602001806020018373ffffffffffffffffffffffffffffffffffffffff1673ffffffffffffffffffffffffffffffffffffffff168152602001828103825284818151815260200191508051906020019080838360005b838110156112f75780820151818401526020810190506112dc565b50505050905090810190601f1680156113245780820380516001836020036101000a031916815260200191505b5094505050505060405180910390a18192505050949350505050565b611348611d53565b81611351611d53565b60018281548110151561136057fe5b906000526020600020906008020161010060405190810160405290816000820160009054906101000a900473ffffffffffffffffffffffffffffffffffffffff1673ffffffffffffffffffffffffffffffffffffffff1673ffffffffffffffffffffffffffffffffffffffff1681526020016001820160009054906101000a900473ffffffffffffffffffffffffffffffffffffffff1673ffffffffffffffffffffffffffffffffffffffff1673ffffffffffffffffffffffffffffffffffffffff168152602001600282018054600181600116156101000203166002900480601f0160208091040260200160405190810160405280929190818152602001828054600181600116156101000203166002900480156114c05780601f10611495576101008083540402835291602001916114c0565b820191906000526020600020905b8154815290600101906020018083116114a357829003601f168201915b505050505081526020016003820160009054906101000a900460ff1660018111156114e757fe5b60018111156114f257fe5b8152602001600482015481526020016005820160009054906101000a900473ffffffffffffffffffffffffffffffffffffffff1673ffffffffffffffffffffffffffffffffffffffff1673ffffffffffffffffffffffffffffffffffffffff1681526020016006820154815260200160078201548152505090506000600181111561157957fe5b8160600151600181111561158957fe5b14151561159557600080fd5b8361159e611d53565b6001828154811015156115ad57fe5b906000526020600020906008020161010060405190810160405290816000820160009054906101000a900473ffffffffffffffffffffffffffffffffffffffff1673ffffffffffffffffffffffffffffffffffffffff1673ffffffffffffffffffffffffffffffffffffffff1681526020016001820160009054906101000a900473ffffffffffffffffffffffffffffffffffffffff1673ffffffffffffffffffffffffffffffffffffffff1673ffffffffffffffffffffffffffffffffffffffff168152602001600282018054600181600116156101000203166002900480601f01602080910402602001604051908101604052809291908181526020018280546001816001161561010002031660029004801561170d5780601f106116e25761010080835404028352916020019161170d565b820191906000526020600020905b8154815290600101906020018083116116f057829003601f168201915b505050505081526020016003820160009054906101000a900460ff16600181111561173457fe5b600181111561173f57fe5b8152602001600482015481526020016005820160009054906101000a900473ffffffffffffffffffffffffffffffffffffffff1673ffffffffffffffffffffffffffffffffffffffff1673ffffffffffffffffffffffffffffffffffffffff1681526020016006820154815260200160078201548152505090503373ffffffffffffffffffffffffffffffffffffffff16816000015173ffffffffffffffffffffffffffffffffffffffff161415156117f757600080fd5b60018681548110151561180657fe5b906000526020600020906008020161010060405190810160405290816000820160009054906101000a900473ffffffffffffffffffffffffffffffffffffffff1673ffffffffffffffffffffffffffffffffffffffff1673ffffffffffffffffffffffffffffffffffffffff1681526020016001820160009054906101000a900473ffffffffffffffffffffffffffffffffffffffff1673ffffffffffffffffffffffffffffffffffffffff1673ffffffffffffffffffffffffffffffffffffffff168152602001600282018054600181600116156101000203166002900480601f0160208091040260200160405190810160405280929190818152602001828054600181600116156101000203166002900480156119665780601f1061193b57610100808354040283529160200191611966565b820191906000526020600020905b81548152906001019060200180831161194957829003601f168201915b505050505081526020016003820160009054906101000a900460ff16600181111561198d57fe5b600181111561199857fe5b8152602001600482015481526020016005820160009054906101000a900473ffffffffffffffffffffffffffffffffffffffff1673ffffffffffffffffffffffffffffffffffffffff1673ffffffffffffffffffffffffffffffffffffffff16815260200160068201548152602001600782015481525050945060018087815481101515611a2257fe5b906000526020600020906008020160030160006101000a81548160ff02191690836001811115611a4e57fe5b02179055508460a0015173ffffffffffffffffffffffffffffffffffffffff166108fc611a8960028860e00151611c3e90919063ffffffff16565b9081150290604051600060405180830381858888f19350505050158015611ab4573d6000803e3d6000fd5b50846020015173ffffffffffffffffffffffffffffffffffffffff166108fc611aeb60028860e00151611c3e90919063ffffffff16565b9081150290604051600060405180830381858888f19350505050158015611b16573d6000803e3d6000fd5b507fe9ba83469fc8ee4260dd274fd43b5a54f2df813ad21c4637d53084d1f3866b37868660a00151611b5660028960e00151611c3e90919063ffffffff16565b8860c00151604051808581526020018473ffffffffffffffffffffffffffffffffffffffff1673ffffffffffffffffffffffffffffffffffffffff16815260200183815260200182815260200194505050505060405180910390a1505050505050565b6000809054906101000a900473ffffffffffffffffffffffffffffffffffffffff1673ffffffffffffffffffffffffffffffffffffffff163373ffffffffffffffffffffffffffffffffffffffff16141515611c1457600080fd5b611c1d81611c59565b50565b6000808284019050838110151515611c3457fe5b8091505092915050565b6000808284811515611c4c57fe5b0490508091505092915050565b600073ffffffffffffffffffffffffffffffffffffffff168173ffffffffffffffffffffffffffffffffffffffff1614151515611c9557600080fd5b8073ffffffffffffffffffffffffffffffffffffffff166000809054906101000a900473ffffffffffffffffffffffffffffffffffffffff1673ffffffffffffffffffffffffffffffffffffffff167f8be0079c531659141344cd1fd0a4f28419497f9722a3daafe3b4186f6b6457e060405160405180910390a3806000806101000a81548173ffffffffffffffffffffffffffffffffffffffff021916908373ffffffffffffffffffffffffffffffffffffffff16021790555050565b61010060405190810160405280600073ffffffffffffffffffffffffffffffffffffffff168152602001600073ffffffffffffffffffffffffffffffffffffffff1681526020016060815260200160006001811115611dae57fe5b815260200160008152602001600073ffffffffffffffffffffffffffffffffffffffff16815260200160008152602001600081525090565b828054600181600116156101000203166002900490600052602060002090601f016020900481019282601f10611e2757805160ff1916838001178555611e55565b82800160010185558215611e55579182015b82811115611e54578251825591602001919060010190611e39565b5b509050611e629190611e66565b5090565b611e8891905b80821115611e84576000816000905550600101611e6c565b5090565b905600a165627a7a723058207c42070ef2b218a498403eb116eb742a54d0f3b596bb93f966a9cf1bae411b9f0029",
  "source": "//Action auction contract organizing and running a single auction\npragma solidity ^0.4.24;\n\n//import open safemath\nimport \"./safemath.sol\";\nimport \"./ownable.sol\";\n\ncontract ActionAuctions is Ownable {\n  using SafeMath for uint;\n\n  enum AuctionStatus {Active, Inactive}\n\n  struct Auction {\n    address auctioneer;\n    address charity;\n\n    string title;\n    AuctionStatus status;\n    uint numBids;\n\n    address topBidder;\n    uint topBid;\n    uint total;\n  }\n\n  Auction[] public auctions;          // All auctions\n\n  //name of charity to eth address\n  mapping(string => address) charities;\n\n  address auctioneer;\n\n  event AuctionCreated(uint auctionId, string title, address auctioneer);\n  event AuctionEnded(uint auctionId, address winner, uint amtWon, uint topBid);\n  event BidPlaced(uint numBids);\n\n  //Checks that sender is the auctioneer\n  modifier onlyAuctioneer(uint AuctionId){\n    Auction memory a = auctions[AuctionId];\n    require(a.auctioneer == msg.sender);\n        _;\n  }\n\n  //Checks that current auction is live\n  modifier onlyLive(uint AuctionId){\n    Auction memory a = auctions[AuctionId];\n    require(a.status == AuctionStatus.Active);\n    _;\n  }\n\n  //creates an action auction\n  constructor() public {\n    auctioneer = msg.sender;\n    //add the charity to mapping of approved charities\n    charities[\"amf\"] =  0xD70AEeB15F5E934aCA7c626eA86bFc0ca5717C2A;\n  }\n\n  //adds an auction to the list of auctions, and publishes it\n  function createAuction(string _title, string _charity) external returns (uint) {\n    // Make sure that the charity is correct\n    require(charities[_charity] != 0, \"Charity name is not valid\");\n\n    uint auctionId = auctions.length;\n\n    Auction memory a = Auction(msg.sender, charities[_charity],\n                        _title, AuctionStatus.Active, 0, charities[_charity], 0,\n                         0);\n    auctions.push(a);\n\n    emit AuctionCreated(auctionId, a.title, a.auctioneer);\n\n    return auctionId;\n  }\n\n  //allows users to place bid\n  //questionable if you need to return anything...\n  function placeBid(uint _auctionId) payable onlyLive(_auctionId) external {\n    require(_auctionId < auctions.length, \"Invalid Auction ID\");\n\n    Auction memory a = auctions[_auctionId];\n    address newBid = msg.sender;\n    uint amount = msg.value;\n\n    //update total\n    a.total = a.total.add(amount);\n\n    //update top bid and top id\n    if(amount > a.topBid){\n      a.topBid = amount;\n      a.topBidder = newBid;\n    }\n\n    //count bids\n    a.numBids = a.numBids.add(1);\n    emit BidPlaced(a.numBids);\n  }\n\n  // ends the auction\n  function endAuction(uint _auctionId) external onlyLive(_auctionId) onlyAuctioneer(_auctionId) {\n    Auction memory a = auctions[_auctionId];\n    auctions[_auctionId].status = AuctionStatus.Inactive;\n    //CHECK THIS\n    //Currently, for odd totals money will be left over, but only 1 wei so who cares?\n    a.topBidder.transfer(a.total.div(2));\n    a.charity.transfer(a.total.div(2));\n    emit AuctionEnded(_auctionId, a.topBidder, a.total.div(2), a.topBid);\n  }\n\n  ///Allows Action Auctions to remove a charity from the list\n  ///of approved charities\n  function removeCharity(string _charity) external onlyOwner{\n    charities[_charity] = 0;\n  }\n\n  ///Allows Action Auctions to approve a charity\n  function addCharity(string _charity, address _address) external onlyOwner{\n    charities[_charity] = _address;\n  }\n\n  ///function\n  function getCharity(string _charity) external view returns(address){\n    return charities[_charity];\n  }\n\n  //Doesn't allow ether randomly being sent to you\n  function() public {\n    revert();\n  }\n}\n",
  "sourcePath": "/Users/freyaryd/Projects/CharityLabs/contracts/ActionAuctions.sol",
  "compiler": {
    "name": "solc",
    "version": "0.4.24+commit.e67f0147.Emscripten.clang"
  },
  "schemaVersion": "2.0.1",
  "updatedAt": "2018-08-02T23:59:06.244Z"
}