{
  "contractName": "ActionAuction",
  "abi": [
    {
      "constant": true,
      "inputs": [
        {
          "name": "",
          "type": "uint256"
        }
      ],
      "name": "auctions",
      "outputs": [
        {
          "name": "auctioneer",
          "type": "address"
        },
        {
          "name": "charity",
          "type": "address"
        },
        {
          "name": "title",
          "type": "string"
        },
        {
          "name": "status",
          "type": "uint8"
        },
        {
          "name": "numBids",
          "type": "uint256"
        },
        {
          "name": "topBidder",
          "type": "address"
        },
        {
          "name": "topBid",
          "type": "uint256"
        },
        {
          "name": "total",
          "type": "uint256"
        },
        {
          "name": "uncollectedWinnings",
          "type": "uint256"
        }
      ],
      "payable": false,
      "stateMutability": "view",
      "type": "function"
    },
    {
      "payable": false,
      "stateMutability": "nonpayable",
      "type": "fallback"
    },
    {
      "anonymous": false,
      "inputs": [
        {
          "indexed": false,
          "name": "auctionId",
          "type": "uint256"
        },
        {
          "indexed": false,
          "name": "title",
          "type": "string"
        },
        {
          "indexed": false,
          "name": "auctioneer",
          "type": "address"
        }
      ],
      "name": "AuctionCreated",
      "type": "event"
    },
    {
      "anonymous": false,
      "inputs": [
        {
          "indexed": false,
          "name": "auctionId",
          "type": "uint256"
        },
        {
          "indexed": false,
          "name": "winner",
          "type": "address"
        },
        {
          "indexed": false,
          "name": "amtWon",
          "type": "uint256"
        },
        {
          "indexed": false,
          "name": "topBid",
          "type": "uint256"
        }
      ],
      "name": "AuctionEnded",
      "type": "event"
    },
    {
      "constant": false,
      "inputs": [],
      "name": "ActionAution",
      "outputs": [],
      "payable": false,
      "stateMutability": "nonpayable",
      "type": "function"
    },
    {
      "constant": false,
      "inputs": [
        {
          "name": "_title",
          "type": "string"
        },
        {
          "name": "_charity",
          "type": "string"
        }
      ],
      "name": "createAuction",
      "outputs": [
        {
          "name": "auctionId",
          "type": "uint256"
        }
      ],
      "payable": false,
      "stateMutability": "nonpayable",
      "type": "function"
    },
    {
      "constant": false,
      "inputs": [
        {
          "name": "_auctionId",
          "type": "uint256"
        }
      ],
      "name": "placeBid",
      "outputs": [
        {
          "name": "success",
          "type": "bool"
        }
      ],
      "payable": true,
      "stateMutability": "payable",
      "type": "function"
    },
    {
      "constant": false,
      "inputs": [
        {
          "name": "_auctionId",
          "type": "uint256"
        }
      ],
      "name": "endAuction",
      "outputs": [],
      "payable": false,
      "stateMutability": "nonpayable",
      "type": "function"
    },
    {
      "constant": false,
      "inputs": [
        {
          "name": "_auctionId",
          "type": "uint256"
        }
      ],
      "name": "retrieveWinnings",
      "outputs": [],
      "payable": true,
      "stateMutability": "payable",
      "type": "function"
    }
  ],
  "bytecode": "0x608060405234801561001057600080fd5b50611df7806100206000396000f300608060405260043610610077576000357c0100000000000000000000000000000000000000000000000000000000900463ffffffff168062a7d41c146100895780634c6c0f11146100a9578063571a26a0146100c05780639979ef4514610230578063b5fa4ea814610268578063b9a2de3a1461032b575b34801561008357600080fd5b50600080fd5b6100a760048036038101908080359060200190929190505050610358565b005b3480156100b557600080fd5b506100be6106c7565b005b3480156100cc57600080fd5b506100eb6004803603810190808035906020019092919050505061079b565b604051808a73ffffffffffffffffffffffffffffffffffffffff1673ffffffffffffffffffffffffffffffffffffffff1681526020018973ffffffffffffffffffffffffffffffffffffffff1673ffffffffffffffffffffffffffffffffffffffff1681526020018060200188600181111561016357fe5b60ff1681526020018781526020018673ffffffffffffffffffffffffffffffffffffffff1673ffffffffffffffffffffffffffffffffffffffff168152602001858152602001848152602001838152602001828103825289818151815260200191508051906020019080838360005b838110156101ed5780820151818401526020810190506101d2565b50505050905090810190601f16801561021a5780820380516001836020036101000a031916815260200191505b509a505050505050505050505060405180910390f35b61024e600480360381019080803590602001909291905050506108fd565b604051808215151515815260200191505060405180910390f35b34801561027457600080fd5b50610315600480360381019080803590602001908201803590602001908080601f0160208091040260200160405190810160405280939291908181526020018383808284378201915050505050509192919290803590602001908201803590602001908080601f0160208091040260200160405190810160405280939291908181526020018383808284378201915050505050509192919290505050610e3f565b6040518082815260200191505060405180910390f35b34801561033757600080fd5b50610356600480360381019080803590602001909291905050506113e2565b005b610360611bba565b6000808381548110151561037057fe5b906000526020600020906009020161012060405190810160405290816000820160009054906101000a900473ffffffffffffffffffffffffffffffffffffffff1673ffffffffffffffffffffffffffffffffffffffff1673ffffffffffffffffffffffffffffffffffffffff1681526020016001820160009054906101000a900473ffffffffffffffffffffffffffffffffffffffff1673ffffffffffffffffffffffffffffffffffffffff1673ffffffffffffffffffffffffffffffffffffffff168152602001600282018054600181600116156101000203166002900480601f0160208091040260200160405190810160405280929190818152602001828054600181600116156101000203166002900480156104d05780601f106104a5576101008083540402835291602001916104d0565b820191906000526020600020905b8154815290600101906020018083116104b357829003601f168201915b505050505081526020016003820160009054906101000a900460ff1660018111156104f757fe5b600181111561050257fe5b8152602001600482015481526020016005820160009054906101000a900473ffffffffffffffffffffffffffffffffffffffff1673ffffffffffffffffffffffffffffffffffffffff1673ffffffffffffffffffffffffffffffffffffffff168152602001600682015481526020016007820154815260200160088201548152505091506000600181111561059357fe5b826060015160018111156105a357fe5b141515610618576040517f08c379a00000000000000000000000000000000000000000000000000000000081526004018080602001828103825260128152602001807f41756374696f6e207374696c6c206c697665000000000000000000000000000081525060200191505060405180910390fd5b8161010001519050600082610100018181525050816020015173ffffffffffffffffffffffffffffffffffffffff166108fc829081150290604051600060405180830381858888f19350505050158015610676573d6000803e3d6000fd5b508160a0015173ffffffffffffffffffffffffffffffffffffffff166108fc829081150290604051600060405180830381858888f193505050501580156106c1573d6000803e3d6000fd5b50505050565b33600260006101000a81548173ffffffffffffffffffffffffffffffffffffffff021916908373ffffffffffffffffffffffffffffffffffffffff16021790555073d70aeeb15f5e934aca7c626ea86bfc0ca5717c2a600160405180807f616d6600000000000000000000000000000000000000000000000000000000008152506003019050908152602001604051809103902060006101000a81548173ffffffffffffffffffffffffffffffffffffffff021916908373ffffffffffffffffffffffffffffffffffffffff160217905550565b6000818154811015156107aa57fe5b90600052602060002090600902016000915090508060000160009054906101000a900473ffffffffffffffffffffffffffffffffffffffff16908060010160009054906101000a900473ffffffffffffffffffffffffffffffffffffffff1690806002018054600181600116156101000203166002900480601f0160208091040260200160405190810160405280929190818152602001828054600181600116156101000203166002900480156108a25780601f10610877576101008083540402835291602001916108a2565b820191906000526020600020905b81548152906001019060200180831161088557829003601f168201915b5050505050908060030160009054906101000a900460ff16908060040154908060050160009054906101000a900473ffffffffffffffffffffffffffffffffffffffff16908060060154908060070154908060080154905089565b6000610907611bba565b600080600085610915611bba565b60008281548110151561092457fe5b906000526020600020906009020161012060405190810160405290816000820160009054906101000a900473ffffffffffffffffffffffffffffffffffffffff1673ffffffffffffffffffffffffffffffffffffffff1673ffffffffffffffffffffffffffffffffffffffff1681526020016001820160009054906101000a900473ffffffffffffffffffffffffffffffffffffffff1673ffffffffffffffffffffffffffffffffffffffff1673ffffffffffffffffffffffffffffffffffffffff168152602001600282018054600181600116156101000203166002900480601f016020809104026020016040519081016040528092919081815260200182805460018160011615610100020316600290048015610a845780601f10610a5957610100808354040283529160200191610a84565b820191906000526020600020905b815481529060010190602001808311610a6757829003601f168201915b505050505081526020016003820160009054906101000a900460ff166001811115610aab57fe5b6001811115610ab657fe5b8152602001600482015481526020016005820160009054906101000a900473ffffffffffffffffffffffffffffffffffffffff1673ffffffffffffffffffffffffffffffffffffffff1673ffffffffffffffffffffffffffffffffffffffff1681526020016006820154815260200160078201548152602001600882015481525050905060006001811115610b4757fe5b81606001516001811115610b5757fe5b14151515610b6157fe5b600088815481101515610b7057fe5b906000526020600020906009020161012060405190810160405290816000820160009054906101000a900473ffffffffffffffffffffffffffffffffffffffff1673ffffffffffffffffffffffffffffffffffffffff1673ffffffffffffffffffffffffffffffffffffffff1681526020016001820160009054906101000a900473ffffffffffffffffffffffffffffffffffffffff1673ffffffffffffffffffffffffffffffffffffffff1673ffffffffffffffffffffffffffffffffffffffff168152602001600282018054600181600116156101000203166002900480601f016020809104026020016040519081016040528092919081815260200182805460018160011615610100020316600290048015610cd05780601f10610ca557610100808354040283529160200191610cd0565b820191906000526020600020905b815481529060010190602001808311610cb357829003601f168201915b505050505081526020016003820160009054906101000a900460ff166001811115610cf757fe5b6001811115610d0257fe5b8152602001600482015481526020016005820160009054906101000a900473ffffffffffffffffffffffffffffffffffffffff1673ffffffffffffffffffffffffffffffffffffffff1673ffffffffffffffffffffffffffffffffffffffff16815260200160068201548152602001600782015481526020016008820154815250509550339450349350610d9a8660e0015185611b81565b8660e0018181525050610dae846002611b9f565b9250610dbf86610100015184611b81565b866101000181815250508560c00151841115610e1857838660c0018181525050848660a0019073ffffffffffffffffffffffffffffffffffffffff16908173ffffffffffffffffffffffffffffffffffffffff16815250505b610e2786608001516001611b81565b86608001818152505060019650505050505050919050565b6000610e49611bba565b60006001846040518082805190602001908083835b602083101515610e835780518252602082019150602081019050602083039250610e5e565b6001836020036101000a038019825116818451168082178552505050505050905001915050908152602001604051809103902060009054906101000a900473ffffffffffffffffffffffffffffffffffffffff1673ffffffffffffffffffffffffffffffffffffffff1614151515610f63576040517f08c379a00000000000000000000000000000000000000000000000000000000081526004018080602001828103825260198152602001807f43686172697479206e616d65206973206e6f742076616c69640000000000000081525060200191505060405180910390fd5b60008054809190600101610f779190611c54565b9150600082815481101515610f8857fe5b906000526020600020906009020161012060405190810160405290816000820160009054906101000a900473ffffffffffffffffffffffffffffffffffffffff1673ffffffffffffffffffffffffffffffffffffffff1673ffffffffffffffffffffffffffffffffffffffff1681526020016001820160009054906101000a900473ffffffffffffffffffffffffffffffffffffffff1673ffffffffffffffffffffffffffffffffffffffff1673ffffffffffffffffffffffffffffffffffffffff168152602001600282018054600181600116156101000203166002900480601f0160208091040260200160405190810160405280929190818152602001828054600181600116156101000203166002900480156110e85780601f106110bd576101008083540402835291602001916110e8565b820191906000526020600020905b8154815290600101906020018083116110cb57829003601f168201915b505050505081526020016003820160009054906101000a900460ff16600181111561110f57fe5b600181111561111a57fe5b8152602001600482015481526020016005820160009054906101000a900473ffffffffffffffffffffffffffffffffffffffff1673ffffffffffffffffffffffffffffffffffffffff1673ffffffffffffffffffffffffffffffffffffffff1681526020016006820154815260200160078201548152602001600882015481525050905033816000019073ffffffffffffffffffffffffffffffffffffffff16908173ffffffffffffffffffffffffffffffffffffffff16815250506001836040518082805190602001908083835b60208310151561120e57805182526020820191506020810190506020830392506111e9565b6001836020036101000a038019825116818451168082178552505050505050905001915050908152602001604051809103902060009054906101000a900473ffffffffffffffffffffffffffffffffffffffff16816020019073ffffffffffffffffffffffffffffffffffffffff16908173ffffffffffffffffffffffffffffffffffffffff16815250508381604001819052506000816060019060018111156112b457fe5b908160018111156112c157fe5b8152505060008160800181815250508060a001515060008160c001818152505060008160e00181815250506000816101000181815250507ff6893840072936dc77874abc2cce5477f1bc76557a9f29895cdcaf2641724c4a828260400151836000015160405180848152602001806020018373ffffffffffffffffffffffffffffffffffffffff1673ffffffffffffffffffffffffffffffffffffffff168152602001828103825284818151815260200191508051906020019080838360005b8381101561139c578082015181840152602081019050611381565b50505050905090810190601f1680156113c95780820380516001836020036101000a031916815260200191505b5094505050505060405180910390a18191505092915050565b6113ea611bba565b816113f3611bba565b60008281548110151561140257fe5b906000526020600020906009020161012060405190810160405290816000820160009054906101000a900473ffffffffffffffffffffffffffffffffffffffff1673ffffffffffffffffffffffffffffffffffffffff1673ffffffffffffffffffffffffffffffffffffffff1681526020016001820160009054906101000a900473ffffffffffffffffffffffffffffffffffffffff1673ffffffffffffffffffffffffffffffffffffffff1673ffffffffffffffffffffffffffffffffffffffff168152602001600282018054600181600116156101000203166002900480601f0160208091040260200160405190810160405280929190818152602001828054600181600116156101000203166002900480156115625780601f1061153757610100808354040283529160200191611562565b820191906000526020600020905b81548152906001019060200180831161154557829003601f168201915b505050505081526020016003820160009054906101000a900460ff16600181111561158957fe5b600181111561159457fe5b8152602001600482015481526020016005820160009054906101000a900473ffffffffffffffffffffffffffffffffffffffff1673ffffffffffffffffffffffffffffffffffffffff1673ffffffffffffffffffffffffffffffffffffffff168152602001600682015481526020016007820154815260200160088201548152505090506000600181111561162557fe5b8160600151600181111561163557fe5b1415151561163f57fe5b83611648611bba565b60008281548110151561165757fe5b906000526020600020906009020161012060405190810160405290816000820160009054906101000a900473ffffffffffffffffffffffffffffffffffffffff1673ffffffffffffffffffffffffffffffffffffffff1673ffffffffffffffffffffffffffffffffffffffff1681526020016001820160009054906101000a900473ffffffffffffffffffffffffffffffffffffffff1673ffffffffffffffffffffffffffffffffffffffff1673ffffffffffffffffffffffffffffffffffffffff168152602001600282018054600181600116156101000203166002900480601f0160208091040260200160405190810160405280929190818152602001828054600181600116156101000203166002900480156117b75780601f1061178c576101008083540402835291602001916117b7565b820191906000526020600020905b81548152906001019060200180831161179a57829003601f168201915b505050505081526020016003820160009054906101000a900460ff1660018111156117de57fe5b60018111156117e957fe5b8152602001600482015481526020016005820160009054906101000a900473ffffffffffffffffffffffffffffffffffffffff1673ffffffffffffffffffffffffffffffffffffffff1673ffffffffffffffffffffffffffffffffffffffff168152602001600682015481526020016007820154815260200160088201548152505090503373ffffffffffffffffffffffffffffffffffffffff16816000015173ffffffffffffffffffffffffffffffffffffffff16141515156118a957fe5b6000868154811015156118b857fe5b906000526020600020906009020161012060405190810160405290816000820160009054906101000a900473ffffffffffffffffffffffffffffffffffffffff1673ffffffffffffffffffffffffffffffffffffffff1673ffffffffffffffffffffffffffffffffffffffff1681526020016001820160009054906101000a900473ffffffffffffffffffffffffffffffffffffffff1673ffffffffffffffffffffffffffffffffffffffff1673ffffffffffffffffffffffffffffffffffffffff168152602001600282018054600181600116156101000203166002900480601f016020809104026020016040519081016040528092919081815260200182805460018160011615610100020316600290048015611a185780601f106119ed57610100808354040283529160200191611a18565b820191906000526020600020905b8154815290600101906020018083116119fb57829003601f168201915b505050505081526020016003820160009054906101000a900460ff166001811115611a3f57fe5b6001811115611a4a57fe5b8152602001600482015481526020016005820160009054906101000a900473ffffffffffffffffffffffffffffffffffffffff1673ffffffffffffffffffffffffffffffffffffffff1673ffffffffffffffffffffffffffffffffffffffff16815260200160068201548152602001600782015481526020016008820154815250509450600185606001906001811115611ae057fe5b90816001811115611aed57fe5b815250507fe9ba83469fc8ee4260dd274fd43b5a54f2df813ad21c4637d53084d1f3866b37868660a001518761010001518860c00151604051808581526020018473ffffffffffffffffffffffffffffffffffffffff1673ffffffffffffffffffffffffffffffffffffffff16815260200183815260200182815260200194505050505060405180910390a1505050505050565b6000808284019050838110151515611b9557fe5b8091505092915050565b6000808284811515611bad57fe5b0490508091505092915050565b61012060405190810160405280600073ffffffffffffffffffffffffffffffffffffffff168152602001600073ffffffffffffffffffffffffffffffffffffffff1681526020016060815260200160006001811115611c1557fe5b815260200160008152602001600073ffffffffffffffffffffffffffffffffffffffff1681526020016000815260200160008152602001600081525090565b815481835581811115611c8157600902816009028360005260206000209182019101611c809190611c86565b5b505050565b611d5b91905b80821115611d5757600080820160006101000a81549073ffffffffffffffffffffffffffffffffffffffff02191690556001820160006101000a81549073ffffffffffffffffffffffffffffffffffffffff0219169055600282016000611cf39190611d5e565b6003820160006101000a81549060ff021916905560048201600090556005820160006101000a81549073ffffffffffffffffffffffffffffffffffffffff021916905560068201600090556007820160009055600882016000905550600901611c8c565b5090565b90565b50805460018160011615610100020316600290046000825580601f10611d845750611da3565b601f016020900490600052602060002090810190611da29190611da6565b5b50565b611dc891905b80821115611dc4576000816000905550600101611dac565b5090565b905600a165627a7a7230582043f5e3bc04ef0da7b4777c3ae1c13bc4809a21be811e76db91e7f2b94ed1208a0029",
  "source": "//Action auction contract organizing and running a single auction\npragma solidity ^0.4.24;\n\n//import open zepellin, safemath, ownable\nimport \"./safemath.sol\";\n\ncontract ActionAuction{\n\n  enum AuctionStatus {Active, Inactive}\n\n  struct Auction {\n    address auctioneer;\n    address charity;\n\n    string title;\n    AuctionStatus status;\n    uint numBids;\n\n    address topBidder;\n    uint topBid;\n    uint total;\n\n    uint uncollectedWinnings;\n  }\n\n  Auction[] public auctions;          // All auctions\n\n  //name of charity to eth address\n  mapping(string => address) charities;\n\n  address auctioneer;\n\n  event AuctionCreated(uint auctionId, string title, address auctioneer);\n  event AuctionEnded(uint auctionId, address winner, uint amtWon, uint topBid);\n\n  modifier onlyAuctioneer(uint AuctionId){\n    Auction memory a = auctions[AuctionId];\n    assert(a.auctioneer != msg.sender);\n        _;\n  }\n\n  modifier onlyLive(uint AuctionId){\n    Auction memory a = auctions[AuctionId];\n    assert(a.status != AuctionStatus.Active);\n    _;\n  }\n\n  function ActionAution() public {\n    auctioneer = msg.sender;\n    //add the charity to mapping of approved charities\n    charities[\"amf\"] =  0xD70AEeB15F5E934aCA7c626eA86bFc0ca5717C2A;\n  }\n\n  function createAuction(string _title, string _charity) public returns (uint auctionId) {\n    // Make sure that the charity is correct\n    require(charities[_charity] != 0, \"Charity name is not valid\");\n\n    auctionId = auctions.length++;\n    Auction memory a = auctions[auctionId];\n\n    a.auctioneer = msg.sender;\n    a.charity = charities[_charity];\n    a.title = _title;\n    a.status = AuctionStatus.Active;\n    a.numBids = 0;\n    a.topBidder;\n    a.topBid = 0;\n    a.total = 0;\n    a.uncollectedWinnings = 0;\n\n    emit AuctionCreated(auctionId, a.title, a.auctioneer);\n\n    return auctionId;\n  }\n\n  function placeBid(uint _auctionId) payable onlyLive(_auctionId) public returns (bool success) {\n    Auction memory a = auctions[_auctionId];\n    address newBid = msg.sender;\n    uint amount = msg.value;\n\n    //update total, uncollected winnings\n    a.total = SafeMath.add(a.total, amount);\n    uint winnings = SafeMath.div(amount, 2);\n    a.uncollectedWinnings = SafeMath.add(a.uncollectedWinnings, winnings);\n\n    //update top bid and top id\n    if(amount > a.topBid){\n      a.topBid = amount;\n      a.topBidder = newBid;\n    }\n\n    //count bids\n    a.numBids = SafeMath.add(a.numBids, 1);\n\n    return true;\n  }\n\n  function endAuction(uint _auctionId) public onlyLive(_auctionId) onlyAuctioneer(_auctionId) {\n    Auction memory a = auctions[_auctionId];\n    a.status = AuctionStatus.Inactive;\n    emit AuctionEnded(_auctionId, a.topBidder, a.uncollectedWinnings, a.topBid);\n  }\n\n  //sends payment to charity when winner collects\n  function retrieveWinnings(uint _auctionId) public payable{\n    Auction memory a = auctions[_auctionId];\n    //require auction is over\n    require(a.status == AuctionStatus.Active, \"Auction still live\");\n\n    //set uncollectedWinnings to 0 to prevent receiving winnings mult. times\n    uint payout = a.uncollectedWinnings;\n    a.uncollectedWinnings = 0;\n    //send money to _charity\n    a.charity.transfer(payout);\n    //send money to _winner\n    a.topBidder.transfer(payout);\n  }\n\n  //Doesn't allow ether randomly being sent to you\n  function() public {\n    revert();\n  }\n}\n",
  "sourcePath": "/Users/freyaryd/Projects/CharityLabs/contracts/ActionAuctions.sol",
  "compiler": {
    "name": "solc",
    "version": "0.4.24+commit.e67f0147.Emscripten.clang"
  },
  "schemaVersion": "2.0.1",
  "updatedAt": "2018-07-29T19:07:46.010Z"
}