{
  "contractName": "ActionAuction",
  "abi": [
    {
      "constant": false,
      "inputs": [],
      "name": "ActionAution",
      "outputs": [],
      "payable": true,
      "stateMutability": "payable",
      "type": "function"
    },
    {
      "constant": false,
      "inputs": [
        {
          "name": "_charity",
          "type": "address"
        },
        {
          "name": "_winner",
          "type": "address"
        },
        {
          "name": "_amount",
          "type": "uint256"
        }
      ],
      "name": "sendPayments",
      "outputs": [],
      "payable": true,
      "stateMutability": "payable",
      "type": "function"
    }
  ],
  "bytecode": "0x608060405260006001556000600255600060035534801561001f57600080fd5b5061018e8061002f6000396000f30060806040526004361061004c576000357c0100000000000000000000000000000000000000000000000000000000900463ffffffff1680634c6c0f11146100515780639dc6d4821461005b575b600080fd5b6100596100bb565b005b6100b9600480360381019080803573ffffffffffffffffffffffffffffffffffffffff169060200190929190803573ffffffffffffffffffffffffffffffffffffffff169060200190929190803590602001909291905050506100bd565b005b565b60006002828115156100cb57fe5b0490508373ffffffffffffffffffffffffffffffffffffffff166108fc829081150290604051600060405180830381858888f19350505050158015610114573d6000803e3d6000fd5b508273ffffffffffffffffffffffffffffffffffffffff166108fc829081150290604051600060405180830381858888f1935050505015801561015b573d6000803e3d6000fd5b50505050505600a165627a7a72305820b4d57de4a1a6fc68a70ecc9035f87c490804bcfb65ae05cec88ef544ece10ccb0029",
  "source": "//Action auction contract organizing and running a single auction\npragma solidity ^0.4.24;\n\n//import open zepellin, safemath, ownable\nimport \"./safemath.sol\";\n\ncontract ActionAuction{\n\n  address private topId;\n  uint private topBid = 0;\n  uint private total = 0;\n  uint private numBids = 0;\n\n  function ActionAution() public payable{\n\n  }\n\n//depending on how is payment works, either return the top bidder info and total\n  function getPayment() private returns (address, uint){\n    address newId;\n    uint newBid;\n    if(numBids <= 16){\n      total = SafeMath.add(newBid, 1);\n      //update top bid and top id\n      if(newBid > topBid){\n        topBid = newBid;\n        topId = newId;\n      }\n    }\n    //count bids\n    numBids = SafeMath.add(numBids, 1);\n  }\n\n//figure out how to send payments\nfunction sendPayments(address _charity, address _winner, uint _amount) public payable{\n  //calc payout\n  uint payout = _amount / 2;\n  //send money to _charity\n  _charity.transfer(payout);\n  //send money to _winner\n  _winner.transfer(payout);\n}\n}\n",
  "sourcePath": "/Users/freyaryd/Projects/CharityLabs/contracts/ActionAuctions.sol",
  "compiler": {
    "name": "solc",
    "version": "0.4.24+commit.e67f0147.Emscripten.clang"
  },
  "schemaVersion": "2.0.1",
  "updatedAt": "2018-07-29T15:04:04.086Z"
}